:020000040800F2
:10000000E8040020350100081B0E00082F0D000831
:10001000190E00087D010008F91100080000000019
:100020000000000000000000000000003F0E00087B
:100030007F010008000000003D0E0008410E00088E
:100040004F0100084F0100084F0100084F01000850
:100050004F0100084F0100084F0100084F01000840
:100060004F0100084F0100084F0100084F01000830
:100070004F0100084F0100084F0100084F01000820
:100080004F0100084F0100084F0100080000000068
:100090000000000000000000000000004F01000808
:1000A0004F0100084F0100084F0100084F010008F0
:1000B0004F0100084F0100084F0100084F010008E0
:1000C0004F0100084F0100084F0100084F010008D0
:1000D0004F0100084F0100084F0100084F010008C0
:1000E0004F0100084F0100084F0100080000000008
:1000F0000000000000000000000000000000000000
:1001000000000000000000000000000000000000EF
:1001100000000000000000004F0100084F0100082F
:10012000DFF80CD000F018F8004800473D12000836
:10013000E80400200648804706480047FEE7FEE73F
:10014000FEE7FEE7FEE7FEE7FEE7FEE7FEE7FEE787
:10015000A90E000821010008064C074D06E0E068E2
:1001600040F0010394E8070098471034AC42F6D3FE
:10017000FFF7DAFF0814000828140008FEE77047AC
:1001800070B5044600F0F2F80546601C02D0044841
:100190000078044400F0EAF8401BA042FAD370BD96
:1001A000000000202DE9F84FDFF890A100220AF1AD
:1001B000040B144601274FF00F090BF1040E00BF8A
:1001C0000B6807FA04F52B40AB4274D1DFF870C11D
:1001D0004E68A6EB0C0866452BD00DDC032E34D000
:1001E00005DC36B3012E19D0022E2FD11BE0112EC3
:1001F00016D0122E2AD119E0B8F5881F19D006DCC6
:10020000B8F5803F15D0B8F5801F1FD111E0B8F5C3
:10021000001F0ED0B8F5041F18D10AE0CA6815E017
:10022000CA68121D12E0CA6808320FE0CA680C32B0
:100230000CE08A682AB1012A4FF0080203D0456118
:1002400004E0042202E0056100E00022FF2B01D857
:10025000064601E000F104064FEA840501D9A5F144
:100260002005D6F800C009FA05F82CEA080C02FAB5
:1002700005F54CEA050CC6F800C04D68ED0057D5F1
:10028000304DAE6946F00106AE61AD6924F003065B
:1002900005F0010500952C4D06EB050CDCF8085027
:1002A000A6074FEA167809FA08F6B543274EB0427A
:1002B00002D1002610E03BE0254EB04201D10126DC
:1002C0000AE0244EB04201D1022605E0224EB0429F
:1002D00001D1032600E0042606FA08F62E43CCF8E6
:1002E00008604D68DAF80060ED03554601D51E43FD
:1002F00000E09E432E604D68DBF80060AD035D4674
:1003000001D51E4300E09E432E604D68DEF800607C
:10031000ED02754601D51E4300E09E432E604D68F8
:10032000AD020E4D2E6801D51E4300E09E432E60A7
:10033000641C102CFFF444AFBDE8F88F00040140AA
:1003400000001110001002400000014000080140B0
:10035000000C014000100140001401400C04014059
:100360000AB1016170470904FBE700000148806899
:1003700070470000000000200248816802781144A4
:10038000816070470000002010B5032000F090F855
:10039000002000F005F800F023F8002010BD000058
:1003A00070B50D4D04464FF47A712878B1FBF0F02A
:1003B0000A490968B1FBF0F000F06DFB48B9102C58
:1003C00007D200222146501E00F052F800206C6037
:1003D00070BD012070BD0000000000200C00002056
:1003E000214808B5816941F001018161816901F00D
:1003F00001010091C16941F08051C161C06900F003
:1004000080500090032000F053F8002211466FF056
:100410000B0000F02DF8002211466FF00A0000F0EA
:1004200027F8002211466FF0090000F021F80022A1
:100430001146501F00F01CF800221146101F00F05A
:1004400017F800221146901E00F012F80022114603
:10045000501E00F00DF80548416821F0E06141F0C0
:100460008061416008BD00000010024000000140B2
:10047000F0B40E4B1B680C46C3F30223C3F107050F
:10048000042D00D90425191D072901D2002300E0FD
:10049000DB1E012606FA05F1491E214099409E40C7
:1004A000761E16403143F0BC00F0B8BC0CED00E005
:1004B000064900F0070208684FF6FF03184040EABB
:1004C0000220034A10430860704700000CED00E072
:1004D0000000FA052DE9F04105460078394C800707
:1004E00005D56068A96820F0F000084360602878AE
:1004F000C00744D06868012804D02168022804D0CD
:10050000890703E02168890300E08901002902DBF3
:100510000120BDE8F081616821F0030101436160C1
:10052000FFF724FF0746686841F28836012808D0A3
:10053000022812D01FE000BFFFF718FFC01BB04217
:1005400017D86068C0F381000128F5D117E000BF1B
:10055000FFF70CFFC01BB0420BD86068C0F38100EE
:100560000228F5D10BE000BFFFF700FFC01BB0422F
:1005700001D90320CDE7606810F00C0FF4D1287882
:10058000400705D56068E96820F4E06008436060D2
:100590002878000706D56068296920F4605040EA91
:1005A000C100606000F03AF86168074AC1F30311C6
:1005B000515CC840054908600020FFF7F1FE0020AB
:1005C000A7E7000000100240F01300080C00002014
:1005D00001480068704700000C00002004480549ED
:1005E00000684968044AC1F30221515CC840704761
:1005F0000C000020001002400014000804480549C7
:1006000000684968044AC1F3C221515CC840704780
:100610000C000020001002400014000815A188B052
:100620000FC98DE80F0017A10DF1100C0FC98CE850
:100630000F00184A516801F00C00042804D0082863
:1006400004D0154808B070471448FBE7C1F3834352
:10065000C9031DF8030009D5D16A04AA01F00F01EE
:10066000515C0E4A5043B0FBF1F0EBE70C494843B4
:10067000E8E7000002030405060708090A0B0C0D51
:100680000E0F10100102030405060708090A0B0CDF
:100690000D0E0F100010024000127A0000366E019D
:1006A00000093D002DE9F84F04460078B94DC00718
:1006B00048D06868C0F38100012807D06868C0F39B
:1006C0008100022809D16868C00306D52868800324
:1006D00038D5606800286FD034E06068B0F5803F9E
:1006E0000BD010B1B0F5A02F11D0286820F48030C5
:1006F0002860286820F4802002E0286840F48030D8
:100700002860606888B1FFF731FE064609E0286876
:1007100040F480202860F0E7FFF728FE801B642863
:1007200075D828688003F7D50CE0FFF71FFE064652
:1007300005E000BFFFF71AFE801B6428F0D8286888
:100740008003F7D42078944E80074FF001094FF0D2
:1007500000083BD5686810F00C0F07D06868C0F33C
:100760008100022809D16868C00306D42868800780
:1007700014D5206901281FD110E02069B0B1C6F856
:100780000090FFF7F3FD074605E000BFFFF7EEFD21
:10079000C01B0228C4D828688007F7D5286861697B
:1007A00020F0F80040EAC10028600FE0C6F80080A1
:1007B000FFF7DCFD074606E0E9E000BFFFF7D6FDE6
:1007C000C01B022823D828688007F7D420780007A8
:1007D0002CD57248A169D9B1C0F80090FFF7C6FDC9
:1007E000074604E0FFF7C2FDC01B02280FD8686A65
:1007F0008007F7D56A484FF4FA510068B0FBF1F072
:10080000009000BF0098411E0091FAD20EE080E0F7
:10081000C0F80080FFF7AAFD074604E0FFF7A6FD39
:10082000C01B022875D8686A8007F7D42078400773
:1008300060D5E8690027C00008D4E86940F080501E
:10084000E861E869012700F0805000905548016890
:10085000C90513D40168834641F480710160FFF734
:1008600085FD824606E000BFFFF780FDA0EB0A0091
:1008700064284ED8DBF80000C005F5D5E0680128F3
:100880000AD008B1052813D0286A20F00100286298
:10089000286A20F0040002E0286A40F00100286283
:1008A000E06841F2883B98B1FFF760FD82460BE0BB
:1008B000286A40F004002862EEE700BFFFF756FD0B
:1008C000A0EB0A0159455AD8286A8007F6D50CE0F2
:1008D000FFF74CFD824605E0FFF748FDA0EB0A015B
:1008E00059454CD8286A8007F6D41FB1E86920F032
:1008F0008050E861E06988B36968C1F38101022929
:1009000045D00228C6F8608004D0FFF72FFD0446CA
:1009100038E034E0FFF72AFD074604E0FFF726FD44
:10092000C01B02282BD828688001F7D4206AB0F5B4
:10093000803F05D1E86AA16820F00F000843E86213
:10094000D4E908010843696821F474110843686018
:10095000C6F86090FFF70AFD044606E015E000BF08
:10096000FFF704FD001B022809D828688001F7D58D
:100970000BE000BFFFF7FAFC001B022802D903209E
:10098000BDE8F88F28688001F4D40020F8E7012042
:10099000F6E700000010024000004242800442429C
:1009A0000C0000200070004070B5040005D0002548
:1009B000A56294F8510010B104E0012070BD2046FA
:1009C00000F02EF8022084F851002068016821F020
:1009D00040010160D4E901010843D4E90312114345
:1009E000084361690843218B01F400710843E16900
:1009F0000843216A0843A16A084321680860A06986
:100A0000042101EA1040616A0843216848602168B6
:100A1000E06A08616565012084F85100002070BD1E
:100A200010B50068124986B088421ED11148C169CC
:100A300041F48041C161C0690F4C00F480400490D2
:100A40004FF420400090022001900320039069465B
:100A50002046FFF7A7FB00214FF48040CDE90001BD
:100A6000029169462046FFF79DFB06B010BD0000CD
:100A70000038004000100240000C01404FF0E0211F
:100A80000428086903D020F004000861704740F092
:100A90000400FAE7704710B5401EB0F1807F01D323
:100AA000012010BD4FF0E02460610F21601700F0BD
:100AB000B5F90020A06107202061002010BD10B50D
:100AC000FFF7E8FF10BD70B5040004D094F83900BA
:100AD000002510B106E0012070BD84F83850204692
:100AE00000F022F8242084F839002068C16821F43D
:100AF0000051C160204600F0FDF92068016921F431
:100B0000904101612068416921F02A01416120681A
:100B1000C16841F40051C160E563202084F83900C8
:100B200084F83A00002070BD70B503681F481E4E5F
:100B3000002402210322051586B0B34216D1836931
:100B400043F4804383618069194E00F4804004902F
:100B50000802CDE90001039269463046FFF722FB07
:100B6000CDE9005469463046029418E0114EB34274
:100B700017D1C36943F48023C361C069CDE9005133
:100B800000F48020CDE903200B4D69462846FFF78D
:100B900009FBE814CDE90004694628460294FFF7F2
:100BA00001FB06B070BD000000380140001002409B
:100BB0000008014000480040000C01402DE9F843C6
:100BC000044690F83A00994616460D4620284FD123
:100BD00095B18EB194F83800012849D0012084F8ED
:100BE00038000027E763222084F83A00FFF7BEFBB5
:100BF000A6858046E68531E00120BDE8F883E08DDA
:100C0000401EE085A0684346B0F5805F4FF00002CB
:100C10004FF020012046CDF8009004D000F0BAFA41
:100C200098B10320E9E700F0B5FA0028F9D120696E
:100C300000282068406803D0C1B225F8011B0DE0F0
:100C4000C0F3080125F8021B08E02069002820688D
:100C5000406801D000F07F0005F8010BE08D00280E
:100C6000CDD1202084F83A0084F838700020C4E701
:100C70000220C2E72DE9F843044690F839001F46E8
:100C800016460D46202850D1A5B19EB194F83800E3
:100C900001284AD0012084F838004FF00008C4F839
:100CA0003C80212084F83900FFF760FBA684814650
:100CB000E68426E00120BDE8F883E08C401EE08455
:100CC000A0684B46B0F5805F4FF000024FF0800106
:100CD0002046009703D000F05DFAE8B90DE000F07F
:100CE00059FAC8B928882168C0F30800486020690B
:100CF00008B16D1C05E0AD1C03E0216815F8010B7F
:100D00004860E08C0028D8D14B4600224021204684
:100D1000009700F03FFA08B10320CCE7202084F8C8
:100D2000390084F838800020C5E70220C3E7FEE7D9
:100D30002DE9F043244885B0816941F010018161BB
:100D4000816901F010010491816941F02001816104
:100D5000816901F020010491816941F008018161FC
:100D6000816901F008010491816941F00401816108
:100D70008069012200F00400DFF8508054030490E1
:100D800021464046FFF7ECFADFF844904FF4C07775
:100D9000012239464846FFF7E3FA009401AA0124EC
:100DA0000025022682E8700069464046FFF7FAF9FE
:100DB00001AA009782E8700069464846FFF7F2F9F9
:100DC00005B0BDE8F08300000010024000100140B3
:100DD000000C01400F4810B50D4901604FF48271BD
:100DE000416000214FF40062C0E9021292100161DB
:100DF000C0E905121822C0E90721416281620A2177
:100E0000C162FFF7D1FD002800D0FEE710BD000051
:100E10000038004010000020FEE770470907090E67
:100E2000002806DA00F00F0000F1E02080F8141D21
:100E3000704700F1E02080F8001470477047704759
:100E400010B5FFF799FABDE81040FFF738BE30B58E
:100E50008FB001252804CDE900500024079468468E
:100E6000FFF720FC00B1FEE70F200A90CDE90B54FC
:100E70004FF4C060CDE90D4000210AA8FFF72AFB1E
:100E800000B1FEE7FFF7A4FB4FF47A71B0FBF1F07D
:100E9000FFF701FE0420FFF7F1FD00221146501E6E
:100EA000FFF7E6FA0FB030BD0E48016841F00101CE
:100EB000016041680C4A1140416001680B4A1140D1
:100EC0000160016821F480210160416821F4FE0184
:100ED00041604FF41F0181600021C1620449C003D9
:100EE00008607047001002400000FFF8FFFFF6FEA8
:100EF00008ED00E02DE9F041044600680169E26870
:100F000021F44051114301612169A068E26908435D
:100F10006169114322680843D16849F20C6399431F
:100F20000143D16020684169A26921F440711143F5
:100F30004161E1696425B1F5004F954821684FF0A2
:100F400032083DD081427AD1FFF758FB00EBC00157
:100F500001EB001061688900B0FBF1F6FFF74EFB72
:100F600000EBC00101EB001061688900B0FBF1F0FB
:100F7000B0FBF5F06FF01801484306EB800108EB79
:100F80000110B0FBF5F000F0F006FFF737FB00EBC7
:100F9000C00101EB001061688900B0FBF1F0B0FB0B
:100FA000F5F006EB0016FFF729FB00EBC00101EBA3
:100FB000001061688900B0FBF1F7FFF71FFBD0E07C
:100FC00081423DD1FFF71AFB00EBC00101EB00109D
:100FD00061684900B0FBF1F0B0FBF5F00601FFF7E6
:100FE0000DFB00EBC00101EB001061684900B0FB94
:100FF000F1F7FFF703FB00EBC00101EB00106168A4
:101000004900B0FBF1F0B0FBF5F06FF01801484378
:1010100007EB800108EBC100B0FBF5F000F0F80031
:1010200006EB4006FFF7EAFA00EBC00101EB001007
:1010300061684900B0FBF1F7FFF7E0FA3CE055E0EA
:10104000FFF7CCFA00EBC00101EB0010616849002A
:10105000B0FBF1F0B0FBF5F00601FFF7BFFA00EBD3
:10106000C00101EB001061684900B0FBF1F7FFF728
:10107000B5FA00EBC00101EB001061684900B0FB5C
:10108000F1F0B0FBF5F06FF01801484307EB800179
:1010900008EBC100B0FBF5F000F0F80006EB4006ED
:1010A000FFF79CFA00EBC00101EB001061684900FA
:1010B000B0FBF1F7FFF792FA00EBC00101EB001073
:1010C00061684900B0FBF1F0B0FBF5F06FF018017A
:1010D000484307EB800108EBC100B0FBF5F000F0DE
:1010E0000700216830448860BDE8F081FFF776FA98
:1010F00000EBC00101EB001061688900B0FBF1F664
:10110000FFF76CFA00EBC00101EB00106168890089
:10111000B0FBF1F0B0FBF5F06FF01801484306EBBF
:10112000800108EB0110B0FBF5F000F0F006FFF7CE
:1011300055FA00EBC00101EB001061688900B0FBBB
:10114000F1F0B0FBF5F006EB0016FFF747FA00EB05
:10115000C00101EB001061688900B0FBF1F7FFF7F7
:101160003DFA00EBC00101EB001061688900B0FBA3
:10117000F1F0B0FBF5F06FF01801484307EB800188
:1011800008EB0110B0FBF5F000F00F00A9E700003C
:10119000003801402DE9F041984617460E460446B6
:1011A000069D1DE0681C1BD02DB1FFF7DFF8A0EBFA
:1011B0000800A84214D92068C16821F4D071C16028
:1011C0002068416921F001014161202084F8390043
:1011D00084F83A00002084F838000320BDE8F0814C
:1011E0002068006836EA000004D00020B842D9D058
:1011F0000020F3E70120F9E7FEE702E008C8121F2C
:1012000008C1002AFAD170477047002001E001C1EF
:10121000121F002AFBD17047F0B5002502242E468C
:10122000801D08E00F5D641C3D44EDB22E44F6B213
:1012300015701E70E4B28442F4D3F0BDA8B0FFF77D
:10124000A3F8FFF704FEFFF773FD464844494FF447
:101250001655002680E862000C24C660C0E90464CC
:101260008661C661FFF72FFC00B1FEE7FFF7B2FD14
:101270003C483D49403880E86200C660C0E90464EB
:101280008661C661FFF71FFC00B1FEE7374D4FF4E2
:101290008074002221462846FFF762F842F210705F
:1012A000FEF76EFF8DF8046001208DF80500042024
:1012B0008DF80C0080208DF806608DF810008DF8F8
:1012C00007608DF818608DF819608DF80D608DF845
:1012D0001A608DF80E608DF81B008DF80F606F207E
:1012E0008DF8200008208DF8210096218DF811102E
:1012F00005962020982100908DF81210194802962A
:101300008DF822608DF8136007968DF8236001AB8D
:1013100031220621403800F02BF84FF4FA764FF0D6
:10132000FF37012221462846FFF71AF83046FEF71C
:1013300027FF002221462846FFF712F83046FEF725
:101340001FFF08483B4646220EA94038FFF736FCEF
:101350003B4646220EA90348FFF78CFCE1E700005C
:1013600000480040A800002000380140000C014067
:1013700070B59EB00646B5208DF8000062208DF84D
:101380000100229C8DF802108DF80440200A8DF88F
:10139000050006218DF803206D46A01D05E05A18B2
:1013A00012F8062C6A54491C89B28142F7D3E0B284
:1013B00019AB1CAA2946FFF72FFF28199DF87010BA
:1013C00081719DF86410C17108344FF0FF35A2B2ED
:1013D0002B4669463046FFF74DFCA2B22B466946C4
:1013E0000248FFF747FC1EB070BD0000A8000020B7
:1013F00000000000000000000102030406070809C5
:10140000000000000102030428140008000000206E
:1014100010000000FA110008381400081000002025
:10142000D80400000A1200080100000010000000AB
:081430000000000000366E010F
:0400000508000121CD
:00000001FF
